:1000000007C1000033C1000031C100002FC1000052
:100010002DC100002BC1000029C1000027C1000034
:1000200025C1000023C1000021C100001FC1000044
:100030001DC100001BC1000019C1000017C1000054
:1000400015C1000013C1000011C100000FC1000064
:100050000DC100000BC1000009C1000035C1000046
:1000600005C1000019C400004DC40000FFC000001D
:10007000FDC00000FBC00000F9C00000F7C0000098
:10008000F5C00000F3C00000F1C00000EFC00000A8
:10009000EDC00000EBC00000E9C00000E7C00000B8
:1000A000E5C00000E3C00000E1C00000DFC00000C8
:1000B000DDC00000DBC00000D9C00000D7C00000D8
:1000C000D5C00000D3C00000D1C00000CFC00000E8
:1000D000CDC00000CBC00000C9C00000C7C00000F8
:1000E000C5C000003402370226022A0230026E0226
:1000F0003B023F02450249024D02530257025B0296
:100100006E0261026502690200000A0B02090C0D11
:100110000E080703040100000000000000000000BA
:1001200000000000000000000000000000000000CF
:10013000000000001211100000000000000000008C
:1001400000000000000000000000000000000102AC
:1001500010202008081020401020408002010201D9
:100160000804020101020408102040808040201091
:1001700008040201800402018040201008040201EA
:100180000804020101020408102040800102040852
:10019000102040800505050507050808080802022B
:1001A00002020A0A08080404040401010101010111
:1001B00001010303030303030303040707070C0CF4
:1001C0000C0C0C0C0C0C02020202060606060606BB
:1001D00006060B0B0B0B0B0B0B0B00002200250074
:1001E00028002B002E003100340002010000050120
:1001F00008010B0100002100240027002A002D0027
:100200003000330001010000040107010A01B404B9
:1002100011241FBECFEFD1E2DEBFCDBF00E00CBF87
:1002200012E0A0E0B2E0E0EFFBE000E00BBF02C0B4
:1002300007900D92A832B107D9F722E0A8E2B2E008
:1002400001C01D92AE3CB207E1F712E0C0E1D2E07E
:1002500000E005C022970109FE010BBFC3D4CE30D8
:10026000D10780E00807B1F78BD4C0C4C9CECF93C3
:10027000C6E160E08C2F33D160E08C2F69D1CF5F75
:10028000C332B9F7CFE261E08C2F29D160E08C2F27
:100290005FD1CF5FC633B9F74AE050E066E070E067
:1002A00081E392E048D426E040E855E260E070E067
:1002B00081E392E0CF9190C251D0AB01BC012AE022
:1002C00030E081E392E04BC41F920F920FB60F9281
:1002D00011242F933F938F939F93AF93BF9380915C
:1002E000290290912A02A0912B02B0912C02309108
:1002F000280223E0230F2D3720F40196A11DB11D04
:1003000005C026E8230F0296A11DB11D20932802E7
:100310008093290290932A02A0932B02B0932C027F
:1003200080912D0290912E02A0912F02B091300267
:100330000196A11DB11D80932D0290932E02A093D2
:100340002F02B0933002BF91AF919F918F913F9157
:100350002F910F900FBE0F901F9018952FB7F89404
:100360006091290270912A0280912B0290912C02B7
:100370002FBF0895789484B5826084BD84B5816070
:1003800084BD85B5826085BD85B5816085BDEEE69D
:10039000F0E0808181608083E1E8F0E0108280817C
:1003A00082608083808181608083E0E8F0E08081EA
:1003B00081608083E1EBF0E0808184608083E0EB0A
:1003C000F0E0808181608083E1E9F0E080818260FB
:1003D0008083808181608083E0E9F0E080818160BA
:1003E0008083E1EAF0E080818260808380818160A7
:1003F0008083E0EAF0E0808181608083E1E2F1E0E7
:10040000808182608083808181608083E0E2F1E08E
:10041000808181608083EAE7F0E08081846080836E
:100420008081826080838081816080838081806818
:1004300080831092C100089590E0FC013197E23171
:10044000F10508F04BC0EE58FF4FC6C38091800005
:100450008F7703C0809180008F7D80938000089506
:1004600080918000877FF9CF84B58F7702C084B5F3
:100470008F7D84BD08958091B0008F7703C08091F7
:10048000B0008F7D8093B0000895809190008F77A9
:1004900007C0809190008F7D03C080919000877F7E
:1004A0008093900008958091A0008F7707C080917D
:1004B000A0008F7D03C08091A000877F8093A00063
:1004C0000895809120018F7707C0809120018F7D52
:1004D00003C080912001877F809320010895CF93EE
:1004E000DF9390E0FC01E25BFE4F2491FC01EC56AF
:1004F000FE4F8491882349F190E0880F991FFC01F9
:10050000EC50FE4FA591B49186529E4FFC01C591CF
:10051000D4919FB7611108C0F8948C9120958223E3
:100520008C93888182230AC0623051F4F8948C91B4
:10053000322F309583238C938881822B888304C04B
:10054000F8948C91822B8C939FBFDF91CF9108956B
:100550000F931F93CF93DF931F92CDB7DEB7282F52
:1005600030E0F901E85FFE4F8491F901E25BFE4F54
:100570001491F901EC56FE4F04910023C1F0882339
:1005800019F0698359DF6981E02FF0E0EE0FFF1F5A
:10059000E652FE4FA591B4919FB7F8948C916111EA
:1005A00003C01095812301C0812B8C939FBF0F90B6
:1005B000DF91CF911F910F910895FC01818D228DC4
:1005C00090E0805C9F4F821B91098F73992708955B
:1005D000FC01918D828D981731F0828DE80FF11D0D
:1005E000858D90E008958FEF9FEF0895FC01918D28
:1005F000828D981761F0828DDF01A80FB11D5D9685
:100600008C91928D9F5F9F73928F90E008958FEFF2
:100610009FEF08958BEA94E0892B39F080E090E019
:10062000892B19F098D1811125C080E090E0892BA9
:1006300041F080E090E0892B21F00E9400008111C0
:100640001CC080E090E0892B41F080E090E0892B95
:1006500021F00E940000811113C080E090E0892BFE
:10066000A1F080E090E0892B81F00E9400008111D0
:100670000AC008950E940000D8CF0E940000E1CF78
:100680000E940000EACF0C9400000895FC01848DC4
:10069000DF01A80FB11DA35ABF4F2C91848D90E0AC
:1006A00001968F739927848FA689B7892C93A08987
:1006B000B1898C9180648C93938D848D981306C03E
:1006C0000288F389E02D80818F7D80830895CF9308
:1006D000DF93EC01888D8823C1F0EA89FB89808152
:1006E00085FD05C0A889B9898C9186FD0EC00FB61D
:1006F00007FCF5CF808185FFF2CFA889B9898C915D
:1007000085FFEDCFCE01C2DFE8CFDF91CF91089515
:10071000CF92DF92FF920F931F93CF93DF931F929D
:10072000CDB7DEB76C0181E0D60158968C9358970F
:100730005B969C915B975C968C915C97981307C035
:100740005096ED91FC915197808185FD2DC0F60169
:10075000038D10E00F5F1F4F0F731127F02EF6016E
:10076000848DF81210C00FB607FCF9CFD601509651
:10077000ED91FC915197808185FFF1CFC60169838E
:1007800085DF6981ECCF838DE80FF11DE35AFF4FC0
:100790006083D6015B960C935B975296ED91FC912A
:1007A0005397808180620CC0D6015696ED91FC91E2
:1007B000579760835096ED91FC91519780818064AA
:1007C000808381E090E00F90DF91CF911F910F9196
:1007D000FF90DF90CF900895BF92CF92DF92EF927B
:1007E000FF92CF93DF93EC016A017B01B22EE8897F
:1007F000F98982E08083411581EE58076105710512
:1008000099F060E079E08DE390E0A7019601C2D114
:10081000215031094109510956954795379527953A
:10082000211580E1380790F0E889F989108260E8A5
:1008300074E88EE190E0A7019601ACD12150310916
:10084000410951095695479537952795EC85FD85C2
:100850003083EE85FF852083188EEC89FD89B08278
:10086000EA89FB89808180618083EA89FB898081B4
:1008700088608083EA89FB89808180688083EA8937
:10088000FB8980818F7D8083DF91CF91FF90EF90F6
:10089000DF90CF90BF9008951F920F920FB60F92E6
:1008A00011240BB60F922F938F939F93EF93FF9387
:1008B000E0914102F09142028081E0914702F09183
:1008C000480282FD12C0908180914A028F5F8F732F
:1008D00020914B02821751F0E0914A02F0E0EF5C68
:1008E000FD4F958F80934A0201C08081FF91EF9167
:1008F0009F918F912F910F900BBE0F900FBE0F9075
:100900001F9018951F920F920FB60F9211240BB6DD
:100910000F922F933F934F935F936F937F938F9398
:100920009F93AF93BF93EF93FF9381E392E0AEDE8B
:10093000FF91EF91BF91AF919F918F917F916F91B7
:100940005F914F913F912F910F900BBE0F900FBE73
:100950000F901F90189581E392E02FDE21E0892B04
:1009600009F420E0822F089510923402109233028D
:1009700088EE93E0A0E0B0E08093350290933602D9
:10098000A0933702B09338028AE092E0909332024B
:100990008093310285EC90E090933E0280933D027B
:1009A00084EC90E09093400280933F0280EC90E0D2
:1009B000909342028093410281EC90E09093440234
:1009C0008093430282EC90E090934602809345022C
:1009D00086EC90E0909348028093470210924A027E
:1009E00010924B0210924C0210924D020895CF9239
:1009F000DF92EF92FF920F931F93CF93DF937C01CF
:100A00006A01EB0100E010E00C151D0571F0699121
:100A1000D701ED91FC910190F081E02DC70119956E
:100A2000892B19F00F5F1F4FEFCFC801DF91CF91D6
:100A30001F910F91FF90EF90DF90CF900895611577
:100A4000710581F0DB010D900020E9F7AD01415007
:100A50005109461B570BDC01ED91FC910280F3819B
:100A6000E02D199480E090E0089566E172E0E7CF10
:100A70008F929F92AF92BF92CF92DF92EF92FF92AE
:100A80000F931F93CF93DF93CDB7DEB7A1970FB628
:100A9000F894DEBF0FBECDBF7C01C42EE52FCB0185
:100AA000D22E19A221E02D1510F02AE0D22E8E01AF
:100AB0000F5D1F4F8D2C912CA12CB12C6C2D7E2FF6
:100AC000A501940167D08C2DD29E8019112401506C
:100AD00011098A3014F4805D01C0895CF8018083BB
:100AE000211531054105510521F0C22EE32FCA0120
:100AF000E5CFB801C701A3DFA1960FB6F894DEBF1A
:100B00000FBECDBFDF91CF911F910F91FF90EF905E
:100B1000DF90CF90BF90AF909F908F900895211558
:100B2000310541F4DC01ED91FC910190F081E02D63
:100B3000642F19949DCF0F931F93CF93DF93EC01F4
:100B40009A01AB0160E070E0EADF8C01CE018DDF3D
:100B5000800F911FDF91CF911F910F9108950F93F7
:100B60001F93CF93DF93EC01DADF8C01CE017DDFA1
:100B7000800F911FDF91CF911F910F9108950895DC
:100B8000F9DBFDDF74DBCAE0D3E096DB2097E9F305
:100B900041DDFBCFA1E21A2EAA1BBB1BFD010DC03C
:100BA000AA1FBB1FEE1FFF1FA217B307E407F5071D
:100BB00020F0A21BB30BE40BF50B661F771F881FF9
:100BC000991F1A9469F760957095809590959B018F
:100BD000AC01BD01CF010895EE0FFF1F0590F49108
:100BE000E02D19940790F691E02D1994F894FFCF19
:100BF0000000CE028000000000008803F704DD0240
:100C0000F602E80267030D0A006E616E00696E6607
:080C1000006F7666002E000063
:00000001FF
