:1000000014C1000041C100003FC100003DC100001B
:100010003BC1000039C1000037C1000035C10000FC
:1000200033C1000031C100002FC100002DC100000C
:100030002BC1000029C1000027C1000025C100001C
:1000400023C1000021C100001FC100001DC100002C
:100050001BC1000019C1000017C1000096C20000BA
:1000600013C10000EAC500001EC600000DC100005B
:100070000BC1000009C1000007C1000005C100005C
:1000800003C1000001C10000FFC00000FDC000006E
:10009000FBC00000F9C00000F7C00000F5C0000080
:1000A000F3C00000F1C00000EFC00000EDC0000090
:1000B000EBC00000E9C00000E7C00000E5C00000A0
:1000C000E3C00000E1C00000DFC00000DDC00000B0
:1000D000DBC00000D9C00000D7C00000D5C00000C0
:1000E000D3C00000DD03E003CF03D303D90317041B
:1000F000E403E803EE03F203F603FC030004040444
:1001000017040A040E04120400000A0B02090C0D65
:100110000E080703040100000000000000000000BA
:1001200000000000000000000000000000000000CF
:10013000000000001211100000000000000000008C
:1001400000000000000000000000000000000102AC
:1001500010202008081020401020408002010201D9
:100160000804020101020408102040808040201091
:1001700008040201800402018040201008040201EA
:100180000804020101020408102040800102040852
:10019000102040800505050507050808080802022B
:1001A00002020A0A08080404040401010101010111
:1001B00001010303030303030303040707070C0CF4
:1001C0000C0C0C0C0C0C02020202060606060606BB
:1001D00006060B0B0B0B0B0B0B0B00002000230078
:1001E000260029002C002F0032000001000003012E
:1001F0000601090100002200250028002B002E0026
:100200003100340002010000050108010B0100006B
:100210002100240027002A002D00300033000101B6
:100220000000040107010A01850611241FBECFEF5B
:10023000D1E2DEBFCDBF00E00CBF13E0A0E0B2E032
:10024000E4EEF6E100E00BBF02C007900D92A63B82
:10025000B107D9F724E0A6EBB3E001C01D92A236A6
:10026000B207E1F712E0CAE2D2E000E005C022974F
:100270000109FE010BBFE4D7C832D10780E00807AF
:10028000B1F7ABD70C94700BBBCECF93C6E160E057
:100290008C2FCED260E08C2F04D3CF5FC332B9F75E
:1002A000CCE261E08C2FC4D260E08C2FFAD2CF5F19
:1002B000C633B9F74AE050E066E070E081EC93E0C5
:1002C00039D626E040E855E260E070E081EC93E04A
:1002D000CF9153C40F931F93CF93DF93CDB7DEB766
:1002E00062970FB6F894DEBF0FBECDBF69EA73E028
:1002F000CE010D969AD68091160208D3892B29F04B
:100300008091140203D3892BA9F480911602FED2A6
:10031000892B41F580911402F9D2892B19F510929D
:10032000B7031092B60362E772E0CE010D96AFD626
:1003300060E029C085E090E09093B7038093B60316
:100340006BE472E0CE010D96A2D661E080910A02C4
:10035000A8D260E080910802A4D261E080910602F8
:10036000A0D230C080911602D1D2892BA9F081E0B1
:1003700090E09093B7038093B60368E172E0CE01FA
:100380000D9685D661E080910A028BD260E0809163
:10039000080287D260E0E2CF80911402B7D2892BA5
:1003A00089F082E090E09093B7038093B60368E20F
:1003B00072E0CE010D966BD660E080910A0271D298
:1003C00061E0E5CF67E372E0CE0107962ED6BE016D
:1003D000695F7F4FCE01019652D6BE01635F7F4FAA
:1003E000CE010196C4D6BC01CE01079633D6CE010C
:1003F0000196B4D5BE01695F7F4F81EC93E017D5BC
:100400000091B6031091B703CE010796A7D5CE0190
:100410000D96A4D5C80162960FB6F894DEBF0FBE44
:10042000CDBFDF91CF911F910F910895CF92DF92B1
:10043000EF92FF92CF93DF93CDB7DEB762970FB6FF
:10044000F894DEBF0FBECDBF69EA73E0CE010D9612
:10045000ECD569EA73E0CE010796E7D566E972E06C
:10046000CE01079614D6BE01695F7F4F81EC93E001
:10047000DED461E085E315D267EF72E0CE010D9620
:1004800006D6CDD06B017C01BE01635F7F4FCE01EC
:100490000196F5D5C701B60128EE33E040E050E003
:1004A000A7D6BA01A901CE0101968AD6BC01CE0118
:1004B0000D96D0D5CE01019651D5B1D0603D774093
:1004C0008105910548F4BE01635F7F4FCE0101961F
:1004D000D6D561E073E008C0BE01635F7F4FCE01F7
:1004E0000196CDD56AE073E0CE01019651D6BC01EC
:1004F000CE010D96AFD5CE01019630D5BE01635F1A
:100500007F4F81EC93E093D468EE73E080E090E05D
:10051000B5D0E0DE80911202F9D1892B29F064E197
:1005200073E081EC93E093D480911002EFD1892B9A
:1005300029F06CE273E081EC93E089D480910E02A3
:10054000E5D1892B29F065E473E081EC93E07FD459
:1005500080910C02DBD1892B29F06EE673E081ECEF
:1005600093E075D4CE010796F9D4CE010D96F6D45A
:1005700062960FB6F894DEBF0FBECDBFDF91CF916C
:10058000FF90EF90DF90CF9008951F920F920FB6DB
:100590000F9211242F933F938F939F93AF93BF9309
:1005A0008091B9039091BA03A091BB03B091BC03B1
:1005B0003091B80323E0230F2D3720F40196A11DBD
:1005C000B11D05C026E8230F0296A11DB11D209381
:1005D000B8038093B9039093BA03A093BB03B0937D
:1005E000BC038091BD039091BE03A091BF03B09165
:1005F000C0030196A11DB11D8093BD039093BE035E
:10060000A093BF03B093C003BF91AF919F918F910F
:100610003F912F910F900FBE0F901F9018952FB7FD
:10062000F8946091B9037091BA038091BB039091E3
:10063000BC032FBF08953FB7F8948091BD039091FC
:10064000BE03A091BF03B091C00326B5A89B05C00F
:100650002F3F19F00196A11DB11D3FBF6627782FCE
:10066000892F9A2F620F711D811D911D42E0660F27
:10067000771F881F991F4A95D1F70895CF92DF926F
:10068000EF92FF92CF93DF936B017C01D4DFEB01FC
:10069000C114D104E104F10479F0A9D5CCDF6C1BBD
:1006A0007D0B683E7340A0F381E0C81AD108E108D1
:1006B000F108C851DC4FECCFDF91CF91FF90EF9064
:1006C000DF90CF900895789484B5826084BD84B51E
:1006D000816084BD85B5826085BD85B5816085BD3D
:1006E000EEE6F0E0808181608083E1E8F0E0108256
:1006F000808182608083808181608083E0E8F0E097
:10070000808181608083E1EBF0E080818460808380
:10071000E0EBF0E0808181608083E1E9F0E08081BE
:1007200082608083808181608083E0E9F0E0808165
:1007300081608083E1EAF0E0808182608083808153
:1007400081608083E0EAF0E0808181608083E1E283
:10075000F1E0808182608083808181608083E0E23B
:10076000F1E0808181608083EAE7F0E0808184604D
:1007700080838081826080838081816080838081AA
:10078000806880831092C100089590E0FC01319749
:10079000E231F10508F04BC0EE58FF4F4BC5809198
:1007A00080008F7703C0809180008F7D80938000D0
:1007B000089580918000877FF9CF84B58F7702C03C
:1007C00084B58F7D84BD08958091B0008F7703C07C
:1007D0008091B0008F7D8093B0000895809190004B
:1007E0008F7707C0809190008F7D03C0809190002B
:1007F000877F8093900008958091A0008F7707C035
:100800008091A0008F7D03C08091A000877F80939E
:10081000A0000895809120018F7707C0809120016A
:100820008F7D03C080912001877F809320010895F0
:10083000CF93DF9390E0FC01E25BFE4F2491FC013B
:10084000EC56FE4F8491882349F190E0880F991F60
:10085000FC01E25FFD4FA591B4918C509E4FFC01CD
:10086000C591D4919FB7611108C0F8948C912095DF
:1008700082238C93888182230AC0623051F4F894D9
:100880008C91322F309583238C938881822B88839F
:1008900004C0F8948C91822B8C939FBFDF91CF91F1
:1008A00008950F931F93CF93DF931F92CDB7DEB7B9
:1008B000282F30E0F901E85FFE4F8491F901E25BF7
:1008C000FE4F1491F901EC56FE4F04910023C1F044
:1008D000882319F0698359DF6981E02FF0E0EE0F7A
:1008E000FF1FEC50FE4FA591B4919FB7F8948C91E7
:1008F000611103C01095812301C0812B8C939FBF90
:100900000F90DF91CF911F910F910895CF93DF93B7
:10091000282F30E0F901E85FFE4F8491F901E25B96
:10092000FE4FD491F901EC56FE4FC491CC2389F0CF
:1009300081112BDFEC2FF0E0EE0FFF1FE652FE4F90
:10094000A591B4912C912D2381E090E021F480E0D9
:1009500002C080E090E0DF91CF910895FC01818D8D
:10096000228D90E0805C9F4F821B91098F739927A5
:100970000895FC01918D828D981731F0828DE80FDA
:10098000F11D858D90E008958FEF9FEF0895FC0194
:10099000918D828D981761F0828DDF01A80FB11DB6
:1009A0005D968C91928D9F5F9F73928F90E00895DA
:1009B0008FEF9FEF08958CE796E0892B39F080E068
:1009C00090E0892B19F098D1811125C080E090E04A
:1009D000892B41F080E090E0892B21F00E940000FB
:1009E00081111CC080E090E0892B41F080E090E014
:1009F000892B21F00E940000811113C080E090E05B
:100A0000892BA1F080E090E0892B81F00E9400000A
:100A100081110AC008950E940000D8CF0E940000F2
:100A2000E1CF0E940000EACF0C9400000895FC0181
:100A3000848DDF01A80FB11DA35ABF4F2C91848D67
:100A400090E001968F739927848FA689B7892C939C
:100A5000A089B1898C9180648C93938D848D981337
:100A600006C00288F389E02D80818F7D8083089500
:100A7000CF93DF93EC01888D8823C1F0EA89FB894D
:100A8000808185FD05C0A889B9898C9186FD0EC03D
:100A90000FB607FCF5CF808185FFF2CFA889B98911
:100AA0008C9185FFEDCFCE01C2DFE8CFDF91CF91F2
:100AB0000895CF92DF92FF920F931F93CF93DF930E
:100AC0001F92CDB7DEB76C0181E0D60158968C93AA
:100AD00058975B969C915B975C968C915C9798136A
:100AE00007C05096ED91FC915197808185FD2DC0F6
:100AF000F601038D10E00F5F1F4F0F731127F02ECB
:100B0000F601848DF81210C00FB607FCF9CFD6019C
:100B10005096ED91FC915197808185FFF1CFC601F0
:100B2000698385DF6981ECCF838DE80FF11DE35A7E
:100B3000FF4F6083D6015B960C935B975296ED91C5
:100B4000FC915397808180620CC0D6015696ED913E
:100B5000FC91579760835096ED91FC91519780815D
:100B60008064808381E090E00F90DF91CF911F91AE
:100B70000F91FF90DF90CF900895BF92CF92DF92B8
:100B8000EF92FF92CF93DF93EC016A017B01B22ECB
:100B9000E889F98982E08083411581EE5807610573
:100BA000710599F060E079E08DE390E0A70196018E
:100BB0001FD3215031094109510956954795379561
:100BC0002795211580E1380790F0E889F98910828E
:100BD00060E874E88EE190E0A701960109D3215006
:100BE0003109410951095695479537952795EC8567
:100BF000FD853083EE85FF852083188EEC89FD8985
:100C0000B082EA89FB89808180618083EA89FB89DF
:100C1000808188608083EA89FB8980818068808305
:100C2000EA89FB8980818F7D8083DF91CF91FF905E
:100C3000EF90DF90CF90BF9008951F920F920FB664
:100C40000F9211240BB60F922F938F939F93EF93D4
:100C5000FF93E091D103F091D2038081E091D7031B
:100C6000F091D80382FD12C090818091DA038F5FEA
:100C70008F732091DB03821751F0E091DA03F0E0EB
:100C8000EF53FC4F958F8093DA0301C08081FF9171
:100C9000EF919F918F912F910F900BBE0F900FBEF0
:100CA0000F901F9018951F920F920FB60F9211245C
:100CB0000BB60F922F933F934F935F936F937F9356
:100CC0008F939F93AF93BF93EF93FF9381EC93E048
:100CD000AEDEFF91EF91BF91AF919F918F917F9188
:100CE0006F915F914F913F912F910F900BBE0F909D
:100CF0000FBE0F901F90189581EC93E02FDE21E03E
:100D0000892B09F420E0822F08951092C4031092D9
:100D1000C30388EE93E0A0E0B0E08093C503909316
:100D2000C603A093C703B093C8038BE993E09093E5
:100D3000C2038093C10385EC90E09093CE0380932F
:100D4000CD0384EC90E09093D0038093CF0380ECAC
:100D500090E09093D2038093D10381EC90E0909344
:100D6000D4038093D30382EC90E09093D6038093D6
:100D7000D50386EC90E09093D8038093D70310922C
:100D8000DA031092DB031092DC031092DD03089566
:100D9000CF92DF92EF92FF920F931F93CF93DF9347
:100DA0007C016A01EB0100E010E00C151D0571F0FB
:100DB0006991D701ED91FC910190F081E02DC7017F
:100DC0001995892B19F00F5F1F4FEFCFC801DF91E5
:100DD000CF911F910F91FF90EF90DF90CF900895EA
:100DE0006115710581F0DB010D900020E9F7AD017F
:100DF00041505109461B570BDC01ED91FC910280DB
:100E0000F381E02D199480E090E00895DC01ED91EC
:100E1000FC91DB0114964D915C9115976D917C913D
:100E20000280F381E02D199467EA73E0D9CF0F9324
:100E30001F93CF93DF93EC01E9DF8C01CE01F4DF48
:100E4000800F911FDF91CF911F910F9108950F9304
:100E50001F93CF93DF93EC01C3DF8C01CE01E4DF5E
:100E6000800F911FDF91CF911F910F9108958F9265
:100E70009F92AF92BF92CF92DF92EF92FF920F9329
:100E80001F93CF93DF93CDB7DEB7A1970FB6F8943A
:100E9000DEBF0FBECDBF7C01C42EE52FCB01D22E0D
:100EA00019A221E02D1510F02AE0D22E8E010F5D3F
:100EB0001F4F8D2C912CA12CB12C6C2D7E2FA501B8
:100EC000940196D18C2DD29E8019112401501109C4
:100ED0008A3014F4805D01C0895CF801808321159B
:100EE00031054105510521F0C22EE32FCA01E5CF9E
:100EF000B801C70175DFA1960FB6F894DEBF0FBE2B
:100F0000CDBFDF91CF911F910F91FF90EF90DF90B8
:100F1000CF90BF90AF909F908F900895211531058D
:100F200041F4DC01ED91FC910190F081E02D642F02
:100F300019949DCF0F931F93CF93DF93EC019A01E8
:100F4000AB0160E070E0EADF8C01CE016DDF800F65
:100F5000911FDF91CF911F910F910895FC01808126
:100F600091810AC2CF93DF93EC0188819981009728
:100F700009F002D2198218821D821C821B821A82F9
:100F8000DF91CF9108950F931F93CF93DF93EC01DF
:100F90008B016F5F7F4F888199817DD2009731F0FF
:100FA000998388831B830A8381E001C080E0DF91FD
:100FB000CF911F910F910895CF93DF93EC0188811A
:100FC0009981892B29F08A819B818617970758F48C
:100FD000CE01D9DF882341F08C819D81892B19F4C2
:100FE000E881F981108281E0DF91CF910895EF923D
:100FF000FF920F931F93CF93DF93EC017B018A0144
:10100000BA01DADF811103C0CE01ACDF06C01D8357
:101010000C83B701888199812BD3CE01DF91CF91C9
:101020001F910F91FF90EF900895FC0111821082A3
:1010300013821282158214826115710551F0FB0131
:1010400001900020E9F7AF0141505109461B570BB1
:10105000CECF0895CF93DF93EC01FB01861797075E
:1010600051F0608171816115710521F044815581D4
:10107000BEDF01C077DFCE01DF91CF910895FC0183
:10108000118210821382128215821482E3CFCF93D1
:10109000DF93EC016115710559F0FB01019000200F
:1010A000E9F7AF0141505109461B570BA0DF01C0C2
:1010B00059DFCE01DF91CF910895EF92FF920F9308
:1010C0001F93CF93DF93EC017B010C811D81611590
:1010D000710511F480E014C04115510581F0040F31
:1010E000151FB80169DF8823A9F3288139818C8114
:1010F0009D81B701820F931FBBD21D830C8381E0BA
:10110000DF91CF911F910F91FF90EF900895EF9293
:10111000FF920F931F93CF93DF93CDB7DEB72D9739
:101120000FB6F894DEBF0FBECDBF7C01CB01BA0174
:101130002AE08E010F5F1F4FA801A1D2F801019094
:101140000020E9F7AF0141505109401B510BB80194
:10115000C701B3DF2D960FB6F894DEBF0FBECDBF2B
:10116000DF91CF911F910F91FF90EF900895CF9352
:10117000DF93EC01FB0144815581608171819DDF2A
:10118000811102C0CE01EEDECE01DF91CF91089534
:10119000CF93DF93EC016115710561F0FB010190C4
:1011A0000020E9F7AF0141505109461B570B85DF7D
:1011B000811102C0CE01D6DECE01DF91CF9108951C
:1011C000CF93DF93EC01A3DF811102C0CE01CADE11
:1011D000CE01DF91CF910895089575DAFDDF55D8DE
:1011E000CBEDD4E023D92097E9F3E5DBFBCF0895DD
:1011F000A1E21A2EAA1BBB1BFD010DC0AA1FBB1F1B
:10120000EE1FFF1FA217B307E407F50720F0A21B8C
:10121000B30BE40BF50B661F771F881F991F1A94F9
:1012200069F760957095809590959B01AC01BD0123
:10123000CF010895EE0FFF1F0590F491E02D199452
:101240000790F691E02D1994CF93DF9382309105AA
:1012500010F482E090E0E0916004F091610420E0FD
:1012600030E0A0E0B0E0309739F14081518148177B
:101270005907B8F04817590771F482819381109784
:1012800029F013969C938E9312972CC0909361042F
:101290008093600427C02115310531F042175307B0
:1012A00018F0A901DB0101C0EF019A01BD01DF01C6
:1012B0000280F381E02DD7CF21153105F9F0281BED
:1012C000390B2430310580F48A819B8161157105C9
:1012D00021F0FB019383828304C090936104809387
:1012E0006004FE01329644C0FE01E20FF31F8193B9
:1012F000919322503109398328833AC020915E04AA
:1013000030915F04232B41F42091020230910302BB
:1013100030935F0420935E0420910002309101021B
:101320002115310541F42DB73EB74091040250918B
:101330000502241B350BE0915E04F0915F04E21777
:10134000F307A0F42E1B3F0B2817390778F0AC01E8
:101350004E5F5F4F2417350748F04E0F5F1F5093C5
:101360005F0440935E048193919302C0E0E0F0E05B
:10137000CF01DF91CF910895CF93DF93009709F4C8
:1013800087C0FC01329713821282C0916004D09111
:101390006104209781F420813181280F391F8091C9
:1013A0005E0490915F048217930779F5F0935F04D0
:1013B000E0935E046DC0DE0120E030E0AE17BF07B1
:1013C00050F412964D915C9113979D014115510572
:1013D00009F1DA01F3CFB383A28340815181840FF5
:1013E000951F8A179B0771F48D919C911197840F1B
:1013F000951F02969183808312968D919C911397ED
:10140000938382832115310529F4F0936104E093DD
:1014100060043EC0D9011396FC93EE9312974D9150
:101420005D91A40FB51FEA17FB0779F480819181C4
:10143000840F951F0296D90111969C938E938281F9
:10144000938113969C938E931297E0E0F0E08A814B
:101450009B81009719F0FE01EC01F9CFCE010296B5
:1014600028813981820F931F20915E0430915F049F
:101470002817390769F4309729F410926104109203
:10148000600402C013821282D0935F04C0935E0492
:10149000DF91CF9108956F927F928F929F92AF923A
:1014A000BF92CF92DF92EF92FF920F931F93CF9351
:1014B000DF93EC01CB01209779F4DF91CF911F915D
:1014C0000F91FF90EF90DF90CF90BF90AF909F90E3
:1014D0008F907F906F90B8CEFE01E60FF71F9E01B0
:1014E00022503109E217F30708F4A8C0D9010D9181
:1014F0001C91119706171707B0F00530110508F475
:101500009BC0A801445051094617570708F494C0DE
:1015100002501109061B170B019311936D937C93D5
:10152000CF012ADF89C05B01A01AB10A4E01800EEB
:10153000911EA0916004B0916104612C712C60E057
:1015400070E0109709F449C0A815B905C9F5ED90E8
:10155000FC901197670142E0C40ED11CCA14DB0451
:1015600078F147018A189B08640142E0C40ED11C3F
:101570001296BC9012971396AC91B5E0CB16D1049D
:1015800040F0B282A38391828082D9018D939C9393
:1015900009C00E5F1F4F0E0D1F1DF901118300833F
:1015A000EB2DFA2F6115710531F0DB011396FC93D9
:1015B000EE93129741C0F0936104E09360043CC045
:1015C0006D917C9111976616770608F43B01BD0179
:1015D00012960D90BC91A02DB4CF60915E047091D5
:1015E0005F0468157905E9F468167906D0F440912E
:1015F0000002509101024115510541F44DB75EB70B
:101600006091040270910502461B570BE417F50721
:10161000A8F4F0935F04E0935E04F9019183808362
:101620000BC012DE7C01009749F0A801BE0117D063
:10163000CE01A2DEC70104C0CE0102C080E090E06E
:10164000DF91CF911F910F91FF90EF90DF90CF909E
:10165000BF90AF909F908F907F906F900895FB0107
:10166000DC0102C001900D9241505040D8F708951E
:10167000FB01DC0101900D920020E1F70895BB27EA
:10168000FA01A62F6217710581059105330B30FB16
:1016900066F0AA27660F771F881F991FAA1FA21737
:1016A00010F0A21B63953850A9F7A05DAA3308F08B
:1016B000A95DA19336F7B111B1931082CA0100C0A0
:1016C000DC01FC01672F71917723E1F7329704C0A9
:1016D0007C916D9370836291AE17BF07C8F3089534
:0416E000F894FFCFAC
:1016E4000000620480002E002D002C0020001F004A
:1016F4001D001C001B001A005072696D6569726F31
:1017040020616E6461722E00536567756E646F208C
:10171400616E6461722E00506F736963616F20643F
:101724006120636162696E653A20004E616F2064D6
:10173400657465637461646F2E20446F69732073EC
:10174400656E736F737265732061747561646F7312
:101754002E004E616F206465746563746164612E4C
:10176400204E656E68756D2073656E736F722061AF
:10177400747561646F005F5F5F5F5F5F5F5F5F5F92
:101784005F5F5F5F5F5F5F5F5F5F5F5F5F5F5F5F65
:101794005F5F5F5F5F5F5F5F5F5F5F5F5F5F5F5F55
:1017A4005F5F5F5F5F5F5F5F5F5F5F5F5F5F5F5F45
:1017B4005F5F5F5F5F5F5F5F5F5F5F5F5F5F5F5F35
:1017C4005F5F5F5F5F5F5F5F5F5F5F5F5F5F5F5F25
:1017D4005F5F5F5F5F5F00417469766F20686120BF
:1017E4000020736567756E646F0020736567756E9E
:1017F400646F73004368616D616461206E6F207370
:101804006567756E646F207069736F004368616DFE
:10181400616461206E6F207072696D6569726F20FA
:101824007069736F00536F6C6963697461636F20CF
:1018340070617261206F207072696D6569726F20CA
:101844007069736F202D20436162696E6500536F68
:101854006C696369746163616F2070617261206F88
:1018640020736567756E646F207069736F202D2017
:10187400436162696E6500000000005905C806AE48
:1018840004C704B90438050D0A006E616E00696E60
:0618940066006F7666009D
:00000001FF
