:1000000014C1000041C100003FC100003DC100001B
:100010003BC1000039C1000037C1000035C10000FC
:1000200033C1000031C100002FC100002DC100000C
:100030002BC1000029C1000027C1000025C100001C
:1000400023C1000021C100001FC100001DC100002C
:100050001BC1000019C1000017C100000DC600003F
:1000600013C10000D3C50000A8C500000DC10000E9
:100070000BC1000009C1000007C1000005C100005C
:1000800003C1000001C10000FFC00000FDC000006E
:10009000FBC00000F9C00000F7C00000F5C0000080
:1000A000F3C00000F1C00000EFC00000EDC0000090
:1000B000EBC00000E9C00000E7C00000E5C00000A0
:1000C000E3C00000E1C00000DFC00000DDC00000B0
:1000D000DBC00000D9C00000D7C00000D5C00000C0
:1000E000D3C0000081028402730277027D02BB024A
:1000F00088028C02920296029A02A002A402A8022E
:10010000BB02AE02B202B6020000200023002600AD
:1001100029002C002F00320000010000030106011D
:10012000090100000A0B02090C0D0E080703040167
:1001300000000000000000000000000000000000BF
:10014000000000000000000000000000000012118C
:10015000100000000000000000000000000000008F
:100160000000000000000000000022002500280020
:100170002B002E00310034000201000005010801AF
:100180000B0100002100240027002A002D00300070
:10019000330001010000040107010A0105050505FE
:1001A000070508080808020202020A0A08080404EF
:1001B000040401010101010101010303030303031D
:1001C0000303040707070C0C0C0C0C0C0C0C0202AC
:1001D000020206060606060606060B0B0B0B0B0BA9
:1001E0000B0B010210202008081020401020408036
:1001F00002010201080402010102040810204080EB
:100200008040201008040201800402018040201078
:1002100008040201080402010102040810204080C1
:100220000102040810204080750811241FBECFEF82
:10023000D1E2DEBFCDBF00E00CBF14E0A0E0B2E031
:10024000EAE5F6E100E00BBF02C007900D92AA3F7D
:10025000B107D9F725E0AAEFB4E001C01D92A83A92
:10026000B207E1F711E0C5E1D1E000E005C0219758
:100270000109802FFE0188D7C431D10780E008072B
:10028000B1F744D50C942B0BBBCECF92DF92EF92FB
:10029000FF920F931F93CF93DF936C017A018B0131
:1002A000C0E0D0E0CE15DF0589F0D8016D918D0159
:1002B000D601ED91FC910190F081E02DC6011995D8
:1002C000892B11F47E0102C02196ECCFC701DF918A
:1002D000CF911F910F91FF90EF90DF90CF900895F5
:1002E000FC01918D828D981761F0828DDF01A80F3E
:1002F000B11D5D968C91928D9F5F9F73928F90E060
:1003000008958FEF9FEF0895FC01918D828D9817CE
:1003100031F0828DE80FF11D858D90E008958FEF0B
:100320009FEF0895FC01918D228D892F90E0805CD4
:100330009F4F821B91098F739927089587E095E05D
:10034000F1DF21E0892B09F420E0822F0895FC01E0
:10035000848DDF01A80FB11DA35ABF4F2C91848D4E
:1003600090E001968F739927848FA689B7892C9383
:10037000A089B1898C9180648C93938D848D98131E
:1003800006C00288F389E02D80818F7D80830895E7
:10039000EF92FF920F931F93CF93DF93EC0181E0D5
:1003A000888F9B8D8C8D981305C0E889F989808191
:1003B00085FD23C0F62E0B8D10E00F5F1F4F0F73CE
:1003C0001127E02E8C8DE8120BC00FB607FCFACF78
:1003D000E889F989808185FFF5CFCE01B8DFF2CFBA
:1003E0008B8DFE01E80FF11DE35AFF4FF0820B8F5A
:1003F000EA89FB898081806207C0EE89FF8960837A
:10040000E889F98980818064808381E090E0DF91D0
:10041000CF911F910F91FF90EF900895CF93DF93AD
:10042000EC01888D8823C1F0EA89FB89808185FDF4
:1004300005C0A889B9898C9186FD0EC00FB607FC4E
:10044000F5CF808185FFF2CFA889B9898C9185FF8E
:10045000EDCFCE017CDFE8CFDF91CF91089580E032
:1004600090E0892B19F06ADF811125C080E090E0CF
:10047000892B41F080E090E0892B21F00E94000060
:1004800081111CC080E090E0892B41F080E090E079
:10049000892B21F00E940000811113C080E090E0C0
:1004A000892BA1F080E090E0892B81F00E94000070
:1004B00081110AC008950E940000D8CF0E94000058
:1004C000E1CF0E940000EACF0C940000089590E074
:1004D000FC013197E231F10508F04DC08827EE5854
:1004E000FF4F8F4F51C6809180008F7703C080915E
:1004F00080008F7D80938000089580918000877FA9
:10050000F9CF84B58F7702C084B58F7D84BD0895FF
:100510008091B0008F7703C08091B0008F7D809371
:10052000B0000895809190008F7707C0809190006F
:100530008F7D03C080919000877F80939000089505
:100540008091A0008F7707C08091A0008F7D03C0AD
:100550008091A000877F8093A00008958091200162
:100560008F7707C0809120018F7D03C0809120018B
:10057000877F809320010895CF93DF93282F30E069
:10058000F901EE5DFE4F8491F901EE51FE4FD491D9
:10059000F901E456FE4FC491CC2389F0811197DF15
:1005A000EC2FF0E0EE0FFF1FE85FFE4FA591B49136
:1005B000EC91ED2381E090E021F480E002C080E046
:1005C00090E0DF91CF9108951F93CF93DF93282F71
:1005D00030E0F901EE5DFE4F8491F901EE51FE4FDE
:1005E000D491F901E456FE4FC491CC23C1F0162FEB
:1005F00081116DDFEC2FF0E0EE0FFF1FE859FE4F89
:10060000A591B4918FB7F894111105C09C91ED2F6D
:10061000E095E92302C0EC91ED2BEC938FBFDF91C5
:10062000CF911F9108953FB7F8948091FD04909168
:10063000FE04A091FF04B091000526B5A89B05C05B
:100640002F3F19F00196A11DB11D3FBFBA2FA92F51
:10065000982F8827820F911DA11DB11DBC01CD01CE
:1006600042E0660F771F881F991F4A95D1F70895BA
:10067000009761F0FC0101900020E9F73197AF018C
:10068000481B590BBC0187E095E0FFCD80E090E06E
:100690000895CF93DF93ECDFEC0186E192E0E8DF91
:1006A0008C0F9D1FDF91CF910895CF93DF93FC01B5
:1006B000448155816081718187E095E0E6DDEC0140
:1006C00086E192E0D5DF8C0F9D1FDF91CF910895D9
:1006D0008F929F92AF92BF92CF92DF92EF92FF9252
:1006E00086E14ADF87E148DF88E146DF89E144DFD0
:1006F00086E142DF21E0019709F420E0209306051E
:1007000087E13ADF21E0019709F420E02093050515
:1007100088E132DF21E0892B09F420E02093FB04FB
:1007200089E12ADF21E0892B09F420E02093FA04F3
:1007300088E192E0AEDF89E192E09ADF80910605E0
:10074000882339F08091FB04882319F083E292E03A
:10075000A0DF80910605882319F085E592E088DF07
:100760008091FB04882319F088E692E081DF809174
:100770000505882339F08091FA04882319F08CE765
:1007800092E087DF80910505882319F08DEA92E0D9
:100790006FDF8091FA04882319F08FEB92E068DF15
:1007A00088E192E076DF3FDF4B015C0188EEC82EE6
:1007B00083E0D82EE12CF12C36DFDC01CB01881947
:1007C0009909AA09BB09883E9340A105B10558F0D3
:1007D00021E0C21AD108E108F10888EE880E83E012
:1007E000981EA11CB11CC114D104E104F10421F72D
:1007F000FF90EF90DF90CF90BF90AF909F908F9041
:100800000895DBD6FC0124813581232B31F421E0CE
:100810006115710599F0FB0108C0FC01808191818F
:100820006115710531F421E0FC018081882331F0EC
:1008300004C0D0D621E0892B09F020E0822F089552
:100840000F931F93CF93DF93EC01888199810097D9
:1008500029F02A813B812617370780F48B016F5FCF
:100860007F4FC7D5009761F0998388831B830A83E4
:100870002C813D81232B11F4FC01108281E001C009
:1008800080E0DF91CF911F910F910895EF92FF9239
:100890000F931F93CF93DF93FC0124813581611562
:1008A000710511F480E017C04115510599F07B01E5
:1008B000EC018A01020F131FB801C2DF882391F3F4
:1008C000288139818C819D81B701820F931F8BD63E
:1008D0001D830C8381E0DF91CF911F910F91FF90D9
:1008E000EF900895CF93DF93EC0188819981009771
:1008F00009F0E7D4198218821D821C821B821A8299
:10090000DF91CF910895EF92FF920F931F93CF93B2
:10091000DF93EC017B018A01BA0192DF811103C0F0
:10092000CE01E0DF06C01D830C83B7018881998169
:100930005AD6CE01DF91CF911F910F91FF90EF908A
:100940000895CF93DF93EC016115710551F0FB0120
:1009500001900020E9F73197AF01461B570BD3DF19
:1009600001C0C0DFCE01DF91CF910895FC0111825B
:10097000108213821282158214826115710549F06A
:10098000FB0101900020E9F73197AF01461B570B9F
:10099000BACF0895FC018081918193C4FB01DC01F1
:1009A00011961C921E9213961C921E9212971596E7
:1009B0001C921E9214978617970741F060817181EF
:1009C0006115710519F0448155819DCF08950F93EC
:1009D0001F93CF93DF93CDB7DEB72C970FB6F89464
:1009E000DEBF0FBECDBF8C0162ED72E0CE01079677
:1009F000BDDFF8014481558160817181CE01079688
:100A000045DF811103C0CE0107966CDFBE01695F2F
:100A10007F4FCE010196C2DFCE010796BBDFCE012C
:100A2000019643DE61EF72E0C801ECDE8823D9F065
:100A30008091FB04882359F08AEF92E02ADE60E07F
:100A40008FE2C2DD60E08FE2BFDD60E00AC08CE1D2
:100A500093E01FDE60E08FE2B7DD61E080E3B4DDAC
:100A600061E08DE220C069E373E0C801CBDE88233A
:100A7000D9F08091FA04882359F081E493E009DEEB
:100A800060E081E3A1DD60E082E39EDD60E00AC01A
:100A900082E693E0FEDD60E081E396DD61E082E3E3
:100AA00093DD61E08EE290DDCE01019673DF2C963E
:100AB0000FB6F894DEBF0FBECDBFDF91CF911F916F
:100AC0000F9108950F931F93CF93DF93CDB7DEB7A8
:100AD0002C970FB6F894DEBF0FBECDBF8C016EE72A
:100AE00073E0CE01079642DFF801448155816081B1
:100AF0007181CE010796CADE811103C0CE0107962F
:100B0000F1DEBE01695F7F4FCE01019647DFCE0166
:100B1000079640DFCE010196C8DD61EF72E0C801A3
:100B200071DE8823D9F080910605882359F08BE97E
:100B300093E0AFDD60E08FE247DD60E080E344DD1D
:100B400060E00AC08CEB93E0A4DD61E08FE23CDD65
:100B500060E080E339DD61E08DE220C069E373E0AD
:100B6000C80150DE8823D9F080910505882359F00B
:100B700088ED93E08EDD60E081E326DD60E082E3D6
:100B800023DD60E00AC088EF93E083DD61E081E36C
:100B90001BDD60E082E318DD61E08EE215DDCE0151
:100BA0000196F8DE2C960FB6F894DEBF0FBECDBFCF
:100BB000DF91CF911F910F9108951F920F920FB661
:100BC0000F9211240BB60F922F933F934F935F9385
:100BD0006F937F938F939F93AF93BF93EF93FF9305
:100BE00087E095E0B4DBFF91EF91BF91AF919F91CA
:100BF0008F917F916F915F914F913F912F910F90C6
:100C00000BBE0F900FBE0F901F9018951F920F9262
:100C10000FB60F9211240BB60F922F938F939F93C1
:100C2000EF93FF93E0911705F09118058081E09113
:100C30001D05F0911E0582FD12C090818091200556
:100C40008F5F8F7320912105821751F0E09120056D
:100C5000F0E0E95FFA4F958F8093200501C0808115
:100C6000FF91EF919F918F912F910F900BBE0F905D
:100C70000FBE0F901F9018951F920F920FB60F92F4
:100C800011242F933F938F939F93AF93BF938091A2
:100C9000010590910205A0910305B09104053091E2
:100CA000FC0423E0230F2D3720F40196A11DB11D74
:100CB00005C026E8230F0296A11DB11D2093FC0458
:100CC0008093010590930205A0930305B09304055A
:100CD0008091FD049091FE04A091FF04B091000565
:100CE0000196A11DB11D8093FD049093FE04A09375
:100CF000FF04B0930005BF91AF919F918F913F91F9
:100D00002F910F900FBE0F901F901895CF93DF93E8
:100D1000CDB7DEB7A7970FB6F894DEBF0FBECDBF35
:100D2000789484B5826084BD84B5816084BD85B5C6
:100D3000826085BD85B5816085BD80916E008160D2
:100D400080936E0010928100809181008260809378
:100D5000810080918100816080938100809180007A
:100D60008160809380008091B10084608093B100A5
:100D70008091B00081608093B0008091910082608A
:100D80008093910080919100816080939100809187
:100D900090008160809390008091A1008260809398
:100DA000A1008091A10081608093A1008091A000AA
:100DB00081608093A0008091210182608093210155
:100DC00080912101816080932101809120018160C7
:100DD0008093200180917A00846080937A008091D2
:100DE0007A00826080937A0080917A00816080939B
:100DF0007A0080917A00806880937A001092C10016
:100E000006E110E0802FF801EE51FE4F9491F801B9
:100E1000E456FE4F24912223D1F030E0220F331FFD
:100E2000F901EE57FE4FA591B491F901E859FE4F33
:100E3000459154913FB7F8942C91E92FE095922F6A
:100E40009E239C93DA019C91E923EC933FBF60E0E1
:100E5000BBDB0F5F1F4F03321105A1F60DE210E05F
:100E6000802FF801EE51FE4F9491F801E456FE4FA9
:100E70002491222399F030E0220F331FF901EE571D
:100E8000FE4FA591B491F901E859FE4F2591349197
:100E90002FB7F894EC91E92BEC932FBF60E094DB33
:100EA0000F5F1F4F06331105D9F6E0911705F0913A
:100EB000180582E08083E0911305F09114051082FB
:100EC000E0911505F09116058FEC808310921F05B7
:100ED000E0911B05F0911C0586E08083E0911905E7
:100EE000F0911A05808180618083E0911905F0916D
:100EF0001A05808188608083E0911905F0911A05B8
:100F0000808180688083E0911905F0911A058081C5
:100F10008F7D808388EEC82E83E0D82EE12CF12CC3
:100F200083E194E0B6DB2FB7F894609101057091EE
:100F3000020580910305909104052FBF1BA21AA200
:100F40001DA21CA21FA21EA2A7019601FBD0CA01CE
:100F5000B9012AE0AE014F5F5F4F4CD3BE016F5F16
:100F60007F4FCE018296EDDCBE016E5D7F4FCE01DC
:100F7000019614DD0D811E81015F1F4FB801CE0166
:100F800001965EDC882309F4ACC029813A818D8109
:100F90009E8167E574E0820F931F25D31E830D8326
:100FA000CE01019682DBCE010196F4DCCE01829661
:100FB000F1DC8EDB68E172E0CE018296D7DC81E263
:100FC000DBDA892B29F182E2D7DA892B09F189ED65
:100FD00094E05FDB60E08FE2F7DA60E080E3F4DA70
:100FE00060E081E3F1DA60E082E3EEDA60E08DE276
:100FF000EBDA60E08EE2E8DACE018296CBDC87E0C5
:1010000095E090D9181619060CF48ACF28DA88CF03
:1010100081E2B2DA892B79F187E694E03ADB61EF7D
:1010200072E0CE0182968DDCBE016E5D7F4FCE01F7
:101030000196B4DCCE01019645DDCE010196AADC15
:1010400069E373E0CE0182967CDCBE016E5D7F4F6A
:10105000CE010196A3DCCE01019634DDCE010196CE
:1010600099DC36DB809106058111C6CF809105059C
:101070008823A9F2C1CF82E27FDA892B79F18BE84C
:1010800094E007DB61EF72E0CE0182965ADCBE018C
:101090006E5D7F4FCE01019681DCCE01019697DC1B
:1010A000CE01019677DC69E373E0CE01829649DCDC
:1010B000BE016E5D7F4FCE01019670DCCE010196C0
:1010C00086DCCE01019666DC03DB8091060581118A
:1010D00093CF809105058823A9F28ECF81EB94E010
:1010E00078CFCE010196FEDB5BCFE7E0F5E013821F
:1010F000128288EE93E0A0E0B0E084839583A6831B
:10110000B7838AE092E09183808385EC90E09587B5
:10111000848784EC90E09787868780EC90E0918BC1
:10112000808B81EC90E0938B828B82EC90E0958BAE
:10113000848B86EC90E0978B868B118E128E138EAB
:10114000148E0895A1E21A2EAA1BBB1BFD010DC02F
:10115000AA1FBB1FEE1FFF1FA217B307E407F50767
:1011600020F0A21BB30BE40BF50B661F771F881F43
:10117000991F1A9469F760957095809590959B01D9
:10118000AC01BD01CF010895EE0FFF1F881F8BBF7B
:101190000790F691E02D1994CF93DF93823091055B
:1011A00010F482E090E0E091A605F091A70520E020
:1011B00030E0C0E0D0E0309711F140815181481714
:1011C0005907C0F04817590761F48281938120972D
:1011D00019F09B838A832BC09093A7058093A60563
:1011E00026C02115310519F04217530718F49A014A
:1011F000BE01DF01EF010280F381E02DDCCF21157C
:10120000310509F1281B390B2430310590F4129671
:101210008D919C9113976115710521F0FB019383CA
:10122000828304C09093A7058093A605FD013296A2
:1012300044C0FD01E20FF31F8193919322503109C5
:101240002D933C933AC02091A4053091A505232B02
:1012500041F420910202309103023093A5052093BE
:10126000A40520910002309101022115310541F4BD
:101270002DB73EB74091040250910502241B350B57
:10128000E091A405F091A505E217F307A0F42E1B49
:101290003F0B2817390778F0AC014E5F5F4F2417DA
:1012A000350748F04E0F5F1F5093A5054093A405E6
:1012B0008193919302C0E0E0F0E0CF01DF91CF9104
:1012C00008950F931F93CF93DF93009709F48CC079
:1012D000FC013297138212820091A6051091A70596
:1012E0000115110581F420813181820F931F209116
:1012F000A4053091A5052817390779F5F093A505C0
:10130000E093A40571C0D80140E050E0AE17BF07DC
:1013100050F412962D913C911397AD012115310592
:1013200009F1D901F3CF9D01DA0133832283608172
:101330007181860F971F8217930769F4EC0128814A
:101340003981260F371F2E5F3F4F318320838A81DB
:101350009B8193838283452B29F4F093A705E09327
:10136000A60542C01396FC93EE931297ED014991A6
:1013700059919E01240F351FE217F30771F4808104
:101380009181840F951F029611969C938E93828172
:10139000938113969C938E931297E0E0F0E0D8012E
:1013A00012968D919C911397009719F0F8018C017A
:1013B000F6CF8D919C9198012E5F3F4F820F931F26
:1013C0002091A4053091A5052817390769F43097B5
:1013D00029F41092A7051092A60502C0138212826A
:1013E0001093A5050093A405DF91CF911F910F9154
:1013F00008956F927F928F929F92AF92BF92CF92F9
:10140000DF92EF92FF920F931F93CF93DF93EC0144
:10141000009781F4CB01DF91CF911F910F91FF9045
:10142000EF90DF90CF90BF90AF909F908F907F9084
:101430006F90B2CEFC01E60FF71F9C0122503109DC
:10144000E217F30708F4A8C0D9010D911C91119778
:1014500006171707A8F00530110508F49BC0C8014E
:1014600004978617970708F495C002501109061BC8
:10147000170B019311936D937C93CF0122DF8AC0E8
:101480005B01A01AB10A4C01800E911EA091A60525
:10149000B091A70540E050E0E12CF12C109709F441
:1014A0004AC0A815B905D1F56D907C9011976301DC
:1014B00082E0C80ED11CCA14DB0480F1A3014A19D2
:1014C0005B096A0182E0C80ED11C1296BC9012978B
:1014D0001396AC91B5E0CB16D10440F0B282A38351
:1014E00051834083D9016D937C930AC00E5F1F4FD7
:1014F000C301800F911FF90191838083EB2DFA2F97
:10150000E114F10431F0D7011396FC93EE93129796
:1015100041C0F093A705E093A6053CC08D919C9136
:1015200011974817590708F4AC017D0112960D90E8
:10153000BC91A02DB3CF8091A4059091A5058815ED
:101540009905E1F446175707C8F48091000290917D
:101550000102009741F48DB79EB74091040250916B
:101560000502841B950BE817F907B0F4F093A50565
:10157000E093A405F901718360830CC0CB010CDEFC
:101580007C01009749F0A801BE011BD0CE0199DE75
:10159000C70104C0CE0102C080E090E0DF91CF918E
:1015A0001F910F91FF90EF90DF90CF90BF90AF9081
:1015B0009F908F907F906F90089581E090E0F894D5
:1015C0004AC0FB01DC0102C001900D924150504025
:1015D000D8F70895FB01DC018D910190801901106D
:1015E000D9F3990B0895FB01DC0101900D920020C5
:1015F000E1F70895BB27FA01A62F6217710581054F
:101600009105330B30FB66F0AA27660F771F881F02
:10161000991FAA1FA21710F0A21B63953850A9F7B3
:10162000A05DAA3308F0A95DA19336F7B111B1937B
:101630001082CA0100C0DC01FC01672F7191772381
:10164000E1F7329704C07C916D9370836291AE177D
:0A165000BF07C8F30895F894FFCF18
:10165A000000A805800000000000C80145019201B1
:10166A00700184010E020D0A004C6F6769636F3EB8
:10167A003E2000446F69732073656E736F726573E1
:10168A00206F706F73746F7320646F206C61646F66
:10169A0020657371756572646F206163696F6E612D
:1016AA00646F7321004573717565726461206162AC
:1016BA0065727461207C200045737175657264617E
:1016CA002066656368616461207C2000446F6973E9
:1016DA002073656E736F726573206F706F73746FAA
:1016EA007320646F206C61646F2064697265697429
:1016FA006F206163696F6E61646F73210044697260
:10170A006569746120616265727461207C2000449D
:10171A006972656974612066656368616461207CC9
:10172A00200050656469646F20646520666563689B
:10173A00616D656E746F20646120706F72746120D0
:10174A0000457371756572646100506F727461202F
:10175A00657371756572646120746F74616C6D650F
:10176A006E74652066656368616461002D2D2D2D98
:10177A002D46656368616E646F20706F72746120B4
:10178A006573717565726461004469726569746133
:10179A0000506F72746120646972656974612074A3
:1017AA006F74616C6D656E746520666563686164EB
:1017BA0061002D2D2D2D2D46656368616E646F20A5
:1017CA00706F727461206469726569746100506532
:1017DA006469646F20646520616265727475726100
:1017EA0020646120706F7274612000506F7274619E
:1017FA0020657371756572646120746F74616C6DB4
:10180A00656E746520616265727461002D2D2D2DDF
:10181A002D416272696E646F20706F727461206507
:10182A007371756572646100506F727461206469C6
:10183A00726569746120746F74616C6D656E74652C
:10184A0020616265727461002D2D2D2D2D41627209
:10185A00696E646F20706F72746120646972656961
:10186A007461002D2D2D2D2D2D2D2D2D2D2D2D2D50
:10187A002D2D2D2D2D2D2D2D2D2D2D2D2D2D2D2D8E
:10188A002D2D2D2D2D2D2D2D2D2D2D2D2D2D2D2D7E
:10189A002D2D2D2D2D2D2D2D2D2D2D2D2D2D2D2D6E
:1018AA002D2D2D2D2D2D0020736567756E646F7398
:1018BA0020617469766F00426F74616F20646520DD
:1018CA006162657274757261206163696F6E6164C9
:1018DA006F202D20636162696E6500426F74616FCB
:1018EA002064652066656368616D656E746F20614A
:1018FA0063696F6E61646F202D20636162696E6532
:10190A00004E616F2068612070656469646F2064AD
:10191A0065206162657274757261206F75206665F3
:10192A006368616D656E746F00416D626F732062EA
:10193A006F746F6573206163696F6E61646F732082
:0A194A002D20636162696E650000E4
:00000001FF
