:1000000014C1000042C1000040C100003EC1000018
:100010003CC100003AC1000038C1000036C10000F8
:1000200034C1000032C1000030C100002EC1000008
:100030002CC100002AC1000028C1000026C1000018
:1000400024C1000022C1000020C100001EC1000028
:100050001CC100001AC1000018C1000007C7000041
:1000600014C10000CDC60000A2C600000EC10000F1
:100070000CC100000AC1000008C1000006C1000058
:1000800004C1000002C1000000C10000FEC0000069
:10009000FCC00000FAC00000F8C00000F6C000007C
:1000A000F4C00000F2C00000F0C00000EEC000008C
:1000B000ECC00000EAC00000E8C00000E6C000009C
:1000C000E4C00000E2C00000E0C00000DEC00000AC
:1000D000DCC00000DAC00000D8C00000D6C00000BC
:1000E000D4C000008A028D027C0280028602C40213
:1000F000910295029B029F02A302A902AD02B102E6
:10010000C402B702BB02BF02000020002300260089
:1001100029002C002F00320000010000030106011D
:10012000090100000A0B02090C0D0E080703040167
:1001300000000000000000000000000000000000BF
:10014000000000000000000000000000000012118C
:10015000100000000000000000000000000000008F
:100160000000000000000000000022002500280020
:100170002B002E00310034000201000005010801AF
:100180000B0100002100240027002A002D00300070
:10019000330001010000040107010A0105050505FE
:1001A000070508080808020202020A0A08080404EF
:1001B000040401010101010101010303030303031D
:1001C0000303040707070C0C0C0C0C0C0C0C0202AC
:1001D000020206060606060606060B0B0B0B0B0BA9
:1001E0000B0B010210202008081020401020408036
:1001F00002010201080402010102040810204080EB
:100200008040201008040201800402018040201078
:1002100008040201080402010102040810204080C1
:100220000102040810204080590911241FBECFEF9D
:10023000D1E2DEBFCDBF00E00CBF14E0A0E0B2E031
:10024000ECE7F8E100E00BBF02C007900D92A43785
:10025000B107D9F725E0A4E7B4E001C01D92A232AE
:10026000B207E1F711E0C5E1D1E000E006C0219757
:100270000109802FFE010E94A809C431D10780E046
:100280000807A9F73DD60C943C0CBACECF92DF926A
:10029000EF92FF920F931F93CF93DF936C017A013C
:1002A0008B01C0E0D0E0CE15DF0589F0D8016D915B
:1002B0008D01D601ED91FC910190F081E02DC601F8
:1002C0001995892B11F47E0102C02196ECCFC7014C
:1002D000DF91CF911F910F91FF90EF90DF90CF9022
:1002E0000895FC01448155816081718181E894E029
:1002F000CDCFFC01918D828D981761F0828DDF0149
:10030000A80FB11D5D968C91928D9F5F9F73928F08
:1003100090E008958FEF9FEF0895FC01918D828DFD
:10032000981731F0828DE80FF11D858D90E00895CA
:100330008FEF9FEF0895FC01918D228D892F90E022
:10034000805C9F4F821B91098F739927089581E8E4
:1003500094E0F1DF21E0892B09F420E0822F089559
:10036000FC01848DDF01A80FB11DA35ABF4F2C9152
:10037000848D90E001968F739927848FA689B78921
:100380002C93A089B1898C9180648C93938D848DFA
:10039000981306C00288F389E02D80818F7D8083C9
:1003A0000895EF92FF920F931F93CF93DF93EC0189
:1003B00081E0888F9B8D8C8D981305C0E889F98921
:1003C000808185FD23C0F62E0B8D10E00F5F1F4F3F
:1003D0000F731127E02E8C8DE8120BC00FB607FCAF
:1003E000FACFE889F989808185FFF5CFCE01B8DFA2
:1003F000F2CF8B8DFE01E80FF11DE35AFF4FF08223
:100400000B8FEA89FB898081806207C0EE89FF89B2
:100410006083E889F98980818064808381E090E04D
:10042000DF91CF911F910F91FF90EF900895CF939F
:10043000DF93EC01888D8823C1F0EA89FB898081F4
:1004400085FD05C0A889B9898C9186FD0EC00FB6BF
:1004500007FCF5CF808185FFF2CFA889B9898C91FF
:1004600085FFEDCFCE017CDFE8CFDF91CF910895FE
:1004700080E090E0892B19F06ADF811125C080E0CF
:1004800090E0892B41F080E090E0892B21F00E94E0
:10049000000081111CC080E090E0892B41F080E0D9
:1004A00090E0892B21F00E940000811113C080E0B0
:1004B00090E0892BA1F080E090E0892B81F00E94F0
:1004C000000081110AC008950E940000D8CF0E9448
:1004D0000000E1CF0E940000EACF0C9400000895D4
:1004E00090E0FC013197E231F10508F04DC088271A
:1004F000EE58FF4F8F4F2CC7809180008F7703C03D
:10050000809180008F7D809380000895809180008D
:10051000877FF9CF84B58F7702C084B58F7D84BD86
:1005200008958091B0008F7703C08091B0008F7DD7
:100530008093B0000895809190008F7707C08091DC
:1005400090008F7D03C080919000877F8093900002
:1005500008958091A0008F7707C08091A0008F7DC3
:1005600003C08091A000877F8093A00008958091B0
:1005700020018F7707C0809120018F7D03C080917B
:100580002001877F809320010895CF93DF93282F48
:1005900030E0F901EE5DFE4F8491F901EE51FE4F1E
:1005A000D491F901E456FE4FC491CC2389F0811116
:1005B00097DFEC2FF0E0EE0FFF1FE85FFE4FA591F5
:1005C000B491EC91ED2381E090E021F480E002C051
:1005D00080E090E0DF91CF9108951F93CF93DF9358
:1005E000282F30E0F901EE5DFE4F8491F901EE51C4
:1005F000FE4FD491F901E456FE4FC491CC23C1F0D3
:10060000162F81116DDFEC2FF0E0EE0FFF1FE85980
:10061000FE4FA591B4918FB7F894111105C09C912C
:10062000ED2FE095E92302C0EC91ED2BEC938FBF09
:10063000DF91CF911F9108953FB7F894809177048F
:1006400090917804A0917904B0917A0426B5A89B82
:1006500005C02F3F19F00196A11DB11D3FBFBA2F54
:10066000A92F982F8827820F911DA11DB11DBC01B4
:10067000CD0142E0660F771F881F991F4A95D1F779
:100680000895CF93DF932DDEEC0142E050E066E168
:1006900072E081E894E0FADD8C0F9D1FDF91CF912D
:1006A0000895CF93DF93009771F0FC010190002033
:1006B000E9F73197AF01481B590BBC0181E894E081
:1006C000E5DDEC0102C0C0E0D0E042E050E066E1D0
:1006D00072E081E894E0DADD8C0F9D1FDF91CF910D
:1006E00008950E94C10BFC0124813581232B31F434
:1006F00021E061157105A1F0FB0108C0FC018081BA
:1007000091816115710531F421E0FC01808188231C
:1007100039F005C00E94CE0B21E0892B09F020E0C2
:10072000822F08950F931F93CF93DF93EC0188815D
:100730009981009729F02A813B812617370780F499
:100740008B016F5F7F4F39D7009761F09983888362
:100750001B830A832C813D81232B11F4FC01108221
:1007600081E001C080E0DF91CF911F910F9108954A
:10077000EF92FF920F931F93CF93DF93FC0124819D
:1007800035816115710511F480E017C041155105DF
:1007900099F07B01EC018A01020F131FB801C2DF3F
:1007A000882391F3288139818C819D81B701820F43
:1007B000931FFDD71D830C8381E0DF91CF911F91A3
:1007C0000F91FF90EF900895CF93DF93EC01888114
:1007D0009981009709F059D6198218821D821C82CE
:1007E0001B821A82DF91CF910895CF93DF93EC01A2
:1007F0006115710559F0FB0101900020E9F731976F
:10080000AF01461B570BB4DF811102C0CE01DCDF04
:10081000CE01DF91CF910895CF93DF93EC01FB01DF
:100820004481558160817181A3DF811102C0CE01B5
:10083000CBDFCE01DF91CF910895EF92FF920F931E
:100840001F93CF93DF93EC017B018A01BA016ADF2A
:10085000811103C0CE01B8DF06C01D830C83B70130
:1008600088819981A4D7CE01DF91CF911F910F91FB
:10087000FF90EF900895CF93DF93EC016115710520
:1008800051F0FB0101900020E9F73197AF01461BC1
:10089000570BD3DF01C098DFCE01DF91CF910895D0
:1008A000FC0111821082138212821582148261155A
:1008B000710549F0FB0101900020E9F73197AF0184
:1008C000461B570BBACF0895FC0180819181DDC58D
:1008D0000F931F93CF93DF93CDB7DEB762970FB619
:1008E000F894DEBF0FBECDBF8C01CB01F8011182A1
:1008F0001082138212821582148250E0BE016F5F53
:100900007F4F5CD7BE016F5F7F4FC801B4DF629637
:100910000FB6F894DEBF0FBECDBFDF91CF911F9110
:100920000F9108958F929F92AF92BF92CF92DF92D4
:10093000EF92FF92CF93DF93CDB7DEB72C970FB630
:10094000F894DEBF0FBECDBF77DE4B015C0188EEB1
:10095000C82E83E0D82EE12CF12C6EDEDC01CB0119
:1009600088199909AA09BB09883E9340A105B105D8
:1009700058F021E0C21AD108E108F10888EE880E8B
:1009800083E0981EA11CB11CC114D104E104F10440
:1009900021F786E1FADD4AE0BC01CE01079698DF37
:1009A00069E172E0CE0101967BDFBE01695F7F4F96
:1009B000CE01019631DF6CE372E017DF92DCCE01ED
:1009C000019682DFCE0107967FDF88E1DEDD4AE017
:1009D000BC01CE0107967CDF6BE272E0CE0101968E
:1009E0005FDFBE01695F7F4FCE01019615DF6CE3CB
:1009F00072E0FBDE76DCCE01019666DFCE01079663
:100A000063DF87E1C2DD4AE0BC01CE01079660DF0B
:100A10006EE372E0CE01019643DFBE01695F7F4F56
:100A2000CE010196F9DE6CE372E0DFDE5ADCCE0126
:100A300001964ADFCE01079647DF89E1A6DD4AE04D
:100A4000BC01CE01079644DF6FE472E0CE0101964F
:100A500027DFBE01695F7F4FCE010196DDDE6CE3CB
:100A600072E0C3DE0EDECE0101962EDFCE010796C8
:100A70002BDF8091800489DD4AE0BC01CE0107961E
:100A800027DF69E172E0CE0101960ADFBE01695FEE
:100A90007F4FCE010196C0DE6CE372E0A6DE21DC62
:100AA000CE01019611DFCE0107960EDF809175040D
:100AB0006CDD4AE0BC01CE0107960ADF6BE272E012
:100AC000CE010196EDDEBE01695F7F4FCE0101963A
:100AD000A3DE6CE372E089DE04DCCE010196F4DE75
:100AE000CE010796F1DE80917F044FDD4AE0BC0124
:100AF000CE010796EDDE6EE372E0CE010196D0DE08
:100B0000BE01695F7F4FCE01019686DE6CE372E025
:100B10006CDEE7DBCE010196D7DECE010796D4DE90
:100B20008091740432DD4AE0BC01CE010796D0DE2C
:100B30006FE472E0CE010196B3DEBE01695F7F4FC4
:100B4000CE01019669DE6CE372E04FDE9ADDCE01E4
:100B50000196BADECE010796B7DE86E116DD21E00A
:100B6000019709F420E02093800487E10EDD21E065
:100B7000019709F420E020937F0488E106DD21E05D
:100B8000892B09F420E02093750489E1FEDC21E043
:100B9000892B09F420E0209374042C960FB6F89466
:100BA000DEBF0FBECDBFDF91CF91FF90EF90DF9002
:100BB000CF90BF90AF909F908F900895FB01DC0184
:100BC00011961C921E9213961C921E9212971596C5
:100BD0001C921E9214978617970741F060817181CD
:100BE0006115710519F04481558127CE08950F9341
:100BF0001F93CF93DF93CDB7DEB72C970FB6F89442
:100C0000DEBF0FBECDBF8C0161E672E0CE0107965C
:100C100047DEB801CE010796FFDDBC01CE0101968B
:100C2000CDDFCE01079650DECE0101962ADD60E8C9
:100C300072E0C80158DD8823D9F0809175048823BB
:100C400059F089E892E02DDD60E08FE2C6DC60E0DB
:100C50008FE2C3DC60E00AC08BEA92E022DD60E054
:100C60008FE2BBDC61E080E3B8DC61E08DE220C0B4
:100C700063EC72E0C80137DD8823D9F080917F04EE
:100C8000882359F08BEC92E00CDD60E081E3A5DC79
:100C900060E082E3A2DC60E00AC08CEE92E001DD5D
:100CA00060E081E39ADC61E082E397DC61E08EE260
:100CB00094DCCE01019608DE2C960FB6F894DEBFC8
:100CC0000FBECDBFDF91CF911F910F9108950F936C
:100CD0001F93CF93DF93CDB7DEB72C970FB6F89461
:100CE000DEBF0FBECDBF8C0163E073E0CE0107967F
:100CF000D7DDB801CE0107968FDDBC01CE0101968C
:100D00005DDFCE010796E0DDCE010196BADC60E83A
:100D100072E0C801E8DC8823D9F080918004882340
:100D200059F080E293E0BDDC60E08FE256DC60E0E9
:100D300080E353DC60E00AC081E493E0B2DC61E070
:100D40008FE24BDC60E080E348DC61E08DE220C0B4
:100D500063EC72E0C801C7DC8823D9F080917F047E
:100D6000882359F088E593E09CDC60E081E335DC82
:100D700060E082E332DC60E00AC088E793E091DC67
:100D800061E081E32ADC60E082E327DC61E08EE25F
:100D900024DCCE01019698DD2C960FB6F894DEBFC8
:100DA0000FBECDBFDF91CF911F910F9108951F927C
:100DB0000F920FB60F9211240BB60F922F933F9301
:100DC0004F935F936F937F938F939F93AF93BF9353
:100DD000EF93FF9381E894E0C3DAFF91EF91BF9125
:100DE000AF919F918F917F916F915F914F913F91C3
:100DF0002F910F900BBE0F900FBE0F901F90189564
:100E00001F920F920FB60F9211240BB60F922F93D1
:100E10008F939F93EF93FF93E0919104F09192044D
:100E20008081E0919704F091980482FD12C0908136
:100E300080919A048F5F8F7320919B04821751F0E9
:100E4000E0919A04F0E0EF57FB4F958F80939A045E
:100E500001C08081FF91EF919F918F912F910F9011
:100E60000BBE0F900FBE0F901F9018951F920F9200
:100E70000FB60F9211242F933F938F939F93AF93AD
:100E8000BF9380917B0490917C04A0917D04B091EC
:100E90007E043091760423E0230F2D3720F4019651
:100EA000A11DB11D05C026E8230F0296A11DB11D8D
:100EB0002093760480937B0490937C04A0937D041C
:100EC000B0937E048091770490917804A091790486
:100ED000B0917A040196A11DB11D8093770490937F
:100EE0007804A0937904B0937A04BF91AF919F9155
:100EF0008F913F912F910F900FBE0F901F901895DB
:100F0000CF93DF93CDB7DEB7A7970FB6F894DEBFC8
:100F10000FBECDBF789484B5826084BD84B58160F6
:100F200084BD85B5826085BD85B5816085BD8091B4
:100F30006E00816080936E0010928100809181002C
:100F40008260809381008091810081608093810024
:100F5000809180008160809380008091B1008460E6
:100F60008093B1008091B00081608093B000809147
:100F700091008260809391008091910081608093C4
:100F80009100809190008160809390008091A100F9
:100F900082608093A1008091A10081608093A10074
:100FA0008091A00081608093A000809121018260E7
:100FB00080932101809121018160809321018091A2
:100FC000200181608093200180917A008460809369
:100FD0007A0080917A00826080937A0080917A0012
:100FE000816080937A0080917A00806880937A0093
:100FF0001092C10006E110E0802FF801EE51FE4F83
:101000009491F801E456FE4F24912223D1F030E070
:10101000220F331FF901EE57FE4FA591B491F9014C
:10102000E859FE4F459154913FB7F8942C91E92F20
:10103000E095922F9E239C93DA019C91E923EC93F7
:101040003FBF60E0CADA0F5F1F4F03321105A1F600
:101050000DE210E0802FF801EE51FE4F9491F8015F
:10106000E456FE4F2491222399F030E0220F331FE3
:10107000F901EE57FE4FA591B491F901E859FE4FE1
:10108000259134912FB7F894EC91E92BEC932FBF75
:1010900060E0A3DA0F5F1F4F06331105D9F6E09128
:1010A0009104F091920482E08083E0918D04F091AC
:1010B0008E041082E0918F04F09190048FEC808375
:1010C00010929904E0919504F091960486E0808353
:1010D000E0919304F0919404808180618083E09199
:1010E0009304F0919404808188608083E09193045C
:1010F000F0919404808180688083E0919304F09162
:10110000940480818F7D808388EEC82E83E0D82E62
:10111000E12CF12C8EE893E0C4DA2FB7F8946091BB
:101120007B0470917C0480917D0490917E042FBF9C
:101130001BA21AA21DA21CA21FA21EA2A7019601F9
:10114000E5D0CA01B9012AE0AE014F5F5F4F4AD333
:10115000BE016F5F7F4FCE0182968DDBBE016E5D5B
:101160007F4FCE0101962ADD62ED73E0CE0101963C
:101170003CDB87DACE010196A7DBCE018296A4DBA9
:10118000D1DB68E172E0CE0182968ADB81E2FDD993
:10119000892B99F082E2F9D9892B79F084E594E0E2
:1011A00080DACE01829690DB81E894E0C4D81816EC
:1011B00019060CF4AFCF5CD9ADCF81E2E6D9892B0B
:1011C00079F182EE93E06DDA60E872E0CE0182960A
:1011D00052DBBE016E5D7F4FCE010196EFDCCE018A
:1011E000019675DDCE0101966FDB63EC72E0CE01F6
:1011F000829641DBBE016E5D7F4FCE010196DEDC43
:10120000CE01019664DDCE0101965EDB8BDB809121
:1012100080048111C6CF80917F048823A9F2C1CFB9
:1012200082E2B3D9892B79F186E094E03ADA60E87A
:1012300072E0CE0182961FDBBE016E5D7F4FCE0154
:101240000196BCDCCE010196D2DCCE0101963CDBDE
:1012500063EC72E0CE0182960EDBBE016E5D7F4FC5
:10126000CE010196ABDCCE010196C1DCCE01019628
:101270002BDB58DB80918004811193CF80917F0418
:101280008823A9F28ECF8CE294E00BDA60E08FE243
:10129000A4D960E080E3A1D960E081E39ED960E059
:1012A00082E39BD960E08DE298D960E08EE295D927
:1012B00078CFE1E8F4E01382128288EE93E0A0E0B8
:1012C000B0E084839583A683B7838AE092E091831C
:1012D000808385EC90E09587848784EC90E0978705
:1012E000868780EC90E0918B808B81EC90E0938BF3
:1012F000828B82EC90E0958B848B86EC90E0978BD0
:10130000868B118E128E138E148E0895A1E21A2EE2
:10131000AA1BBB1BFD010DC0AA1FBB1FEE1FFF1F99
:10132000A217B307E407F50720F0A21BB30BE40BE9
:10133000F50B661F771F881F991F1A9469F7609530
:101340007095809590959B01AC01BD01CF010895EA
:10135000EE0FFF1F881F8BBF0790F691E02D1994A9
:10136000CF93DF938230910510F482E090E0E0911A
:101370002005F091210520E030E0C0E0D0E030977A
:1013800011F14081518148175907C0F0481759079A
:1013900061F482819381209719F09B838A832BC00B
:1013A000909321058093200526C02115310519F061
:1013B0004217530718F49A01BE01DF01EF010280C2
:1013C000F381E02DDCCF2115310509F1281B390B04
:1013D0002430310590F412968D919C9113976115EC
:1013E000710521F0FB019383828304C09093210552
:1013F00080932005FD01329644C0FD01E20FF31FEA
:1014000081939193225031092D933C933AC02091BE
:101410001E0530911F05232B41F4209102023091CB
:10142000030230931F0520931E0520910002309186
:1014300001022115310541F42DB73EB74091040258
:1014400050910502241B350BE0911E05F0911F05FC
:10145000E217F307A0F42E1B3F0B2817390778F08B
:10146000AC014E5F5F4F2417350748F04E0F5F1FEA
:1014700050931F0540931E058193919302C0E0E0B5
:10148000F0E0CF01DF91CF9108950F931F93CF9399
:10149000DF93009709F48CC0FC013297138212820B
:1014A00000912005109121050115110581F420817D
:1014B0003181820F931F20911E0530911F0528173F
:1014C000390779F5F0931F05E0931E0571C0D80127
:1014D00040E050E0AE17BF0750F412962D913C91BA
:1014E0001397AD012115310509F1D901F3CF9D0104
:1014F000DA013383228360817181860F971F8217FF
:10150000930769F4EC0128813981260F371F2E5F7C
:101510003F4F318320838A819B8193838283452B34
:1015200029F4F0932105E093200542C01396FC9323
:10153000EE931297ED01499159919E01240F351FA9
:10154000E217F30771F480819181840F951F029651
:1015500011969C938E938281938113969C938E9384
:101560001297E0E0F0E0D80112968D919C911397CC
:10157000009719F0F8018C01F6CF8D919C9198019C
:101580002E5F3F4F820F931F20911E0530911F0544
:101590002817390769F4309729F410922105109221
:1015A000200502C01382128210931F0500931E05AE
:1015B000DF91CF911F910F9108956F927F928F923B
:1015C0009F92AF92BF92CF92DF92EF92FF920F93D2
:1015D0001F93CF93DF93EC01009781F4CB01DF9150
:1015E000CF911F910F91FF90EF90DF90CF90BF9020
:1015F000AF909F908F907F906F90B2CEFC01E60FDE
:10160000F71F9C0122503109E217F30708F4A8C024
:10161000D9010D911C91119706171707A8F00530F5
:10162000110508F49BC0C80104978617970708F4B2
:1016300095C002501109061B170B019311936D936E
:101640007C93CF0122DF8AC05B01A01AB10A4C0152
:10165000800E911EA0912005B091210540E050E040
:10166000E12CF12C109709F44AC0A815B905D1F561
:101670006D907C901197630182E0C80ED11CCA1452
:10168000DB0480F1A3014A195B096A0182E0C80EFC
:10169000D11C1296BC9012971396AC91B5E0CB1664
:1016A000D10440F0B282A38351834083D9016D936A
:1016B0007C930AC00E5F1F4FC301800F911FF90179
:1016C00091838083EB2DFA2FE114F10431F0D701DF
:1016D0001396FC93EE93129741C0F0932105E0938B
:1016E00020053CC08D919C9111974817590708F42B
:1016F000AC017D0112960D90BC91A02DB3CF8091CD
:101700001E0590911F0588159905E1F446175707A6
:10171000C8F48091000290910102009741F48DB7C6
:101720009EB74091040250910502841B950BE81767
:10173000F907B0F4F0931F05E0931E05F9017183DA
:1017400060830CC0CB010CDE7C01009749F0A8013E
:10175000BE011BD0CE0199DEC70104C0CE0102C07C
:1017600080E090E0DF91CF911F910F91FF90EF907B
:10177000DF90CF90BF90AF909F908F907F906F90B1
:10178000089581E090E0F89477C0FB01DC0102C08D
:1017900001900D9241505040D8F70895FB01DC01B3
:1017A0008D91019080190110D9F3990B0895FB01D7
:1017B000DC0101900D920020E1F7089545325105BA
:1017C00018F4423008F004C0FB011082CB010895E8
:1017D000BB274A3031F4992322F4BDE290958195DC
:1017E0009F4F22C0BB27FA01A62F62177105810502
:1017F0009105330B30FB66F0AA27660F771F881F11
:10180000991FAA1FA21710F0A21B63953850A9F7C1
:10181000A05DAA3308F0A95DA19336F7B111B19389
:101820001082CA0119C0BB27FB015527AA27880FC0
:10183000991FAA1FA41710F0A41B83955051B9F744
:10184000A05DAA3308F0A95DA193009779F7B111C3
:10185000B1931192CB0100C0DC01FC01672F7191A3
:101860007723E1F7329704C07C916D937083629186
:0C187000AE17BF07C8F30895F894FFCF2F
:10187C0000002205800000000000D10146019B0100
:10188C0079018D0117020D0A00457371756572643B
:10189C0061206162657274613D20004573717565EC
:1018AC0072646120666563686164613D200044690F
:1018BC007265697461206162657274613D200044D7
:1018CC0069726569746120666563686164613D2055
:1018DC000050656469646F206465206665636861A7
:1018EC006D656E746F20646120706F72746120007E
:1018FC00457371756572646100506F727461206517
:10190C007371756572646120746F74616C6D656E52
:10191C00746520666563686164610046656368612F
:10192C006E646F20706F727461206573717565726F
:10193C006461004469726569746100506F7274610E
:10194C00206469726569746120746F74616C6D6573
:10195C006E746520666563686164610046656368E2
:10196C00616E646F20706F72746120646972656956
:10197C0074610050656469646F2064652061626500
:10198C00727475726120646120706F7274612000D2
:10199C00506F727461206573717565726461207427
:1019AC006F74616C6D656E746520616265727461D3
:1019BC0000416272696E646F20706F727461206591
:1019CC007371756572646100506F72746120646923
:1019DC00726569746120746F74616C6D656E746589
:1019EC002061626572746100416272696E646F207D
:1019FC00706F7274612064697265697461002D2D59
:101A0C002D2D2D2D2D2D2D2D2D2D2D2D2D2D2D2DFA
:101A1C002D2D2D2D2D2D2D2D2D2D2D2D2D2D2D2DEA
:101A2C002D2D2D2D2D2D2D2D2D2D2D2D2D2D2D2DDA
:101A3C002D2D2D2D2D2D2D2D2D2D2D2D2D2D2D2DCA
:101A4C002D0020736567756E646F73206174697601
:101A5C006F00426F74616F206465206162657274FF
:101A6C00757261206163696F6E64616F202D2063F4
:101A7C006162696E6500426F74616F2064652066F7
:101A8C00656368616D656E746F206163696F6E6408
:101A9C00616F202D20636162696E65004E616F205D
:101AAC0068612070656469646F206465206162659B
:101ABC007274757261206F752066656368616D65FF
:101ACC006E746F00416D626F7320626F746F65731B
:101ADC00206163696F6E61646F73202D2063616296
:041AEC00696E6500BA
:00000001FF
